:100000000C9488000C941D080C944A080C94B000C1
:100010000C94B0000C94B0000C94B0000C94E20C62
:100020000C94B0000C94B0000C94B0000C94B00090
:100030000C94B0000C94B0000C94B0000C94B00080
:100040000C9477080C94B0000C94160A0C94B00031
:100050000C94B0000C94B0000C94B0000C94B00060
:100060000C94B0000C94B000EFE1D5C9BEB3A99FC9
:10007000968E867F77716A645F5954504B47433F31
:100080000505040403036443640F4643190F6443E6
:10009000190F6440190F6440190F6440190F64432D
:1000A000190F6443190F6443190F64436443000F2D
:1000B00000000000240027002A00000000002500A6
:1000C00028002B0000000000230026002900040463
:1000D00004040404040402020202020203030303F0
:1000E00003030102040810204080010204081020CC
:1000F00001020408102000000007000201000003B4
:100100000406000000000000000002004804120B7A
:1001100011241FBECFEFD4E0DEBFCDBF11E0A0E0C1
:10012000B1E0E2E2FBE102C005900D92AE33B1070F
:10013000D9F712E0AEE3B1E001C01D92A33DB107D3
:10014000E1F711E0C0E1D1E004C02297FE010E9476
:100150007D0DCC30D107C9F70E944C0B0C948F0D4C
:100160000C94000082E48093B0000895982F809151
:10017000B100887F8093B1006F30F1F02091B10021
:10018000892F90E0FC01E058FF4FE491E770E22BEB
:10019000E093B10081709070FC01EE0FFF1FE80F3B
:1001A000F91FEE0FFF1FEE0FFF1FE60FF11DE859BD
:1001B000FF4FE491E093B30008951F93CF93DF9333
:1001C000EC01FE0125913491122F2296222341F455
:1001D00080E06FE00E94B600DF91CF911F910895FB
:1001E000832F82958F70632F6F7087700E94B60087
:1001F000612F70E080E090E00E94F308E2CFFC0104
:100200001282118210820895FC01128211821082E2
:100210000895DC0112964C91129790E010C0292F9E
:1002200030E0FD01E20FF31F8381861729F42D5F73
:100230003F4F2A0F3B1F09C084818E5F980F941790
:1002400010F4903760F320E030E0C9010895CF93B7
:10025000DF93EA010E940901FC01009711F480E09C
:1002600003C08281888381E0DF91CF910895CF938D
:10027000DF93EC0120E030E00CC0FE01E90FF11D3E
:10028000DB01A20FB31F8C9183839F5F9A832F5F43
:100290003F4F241735071CF49A81903770F3DF9194
:1002A000CF910895DC0112968C911297FD01E80F11
:1002B000F11D63838F5FFD01E80FF11D43838F5FA5
:1002C00012968C931297CD01B90150E00E9437012C
:1002D0000895EF92FF920F931F937C0109EB12E0B8
:1002E000BC017070C80140E050E00E94830CC8015E
:1002F0006F2D70E040E050E00E94830C1F910F9141
:10030000FF90EF900895CF92DF92EF92FF920F93BC
:100310001F93CF93DF93EC0189EB92E060E071E0F3
:100320000E948A0B888199810E9469018881998144
:100330000FEA13EE0827002E0295007F0025012EFC
:10034000102F02950F700026069510270127000F29
:10035000000F000F00250927002E0295007F0025C1
:10036000012E102F02950F700026069510270127E9
:10037000000F000F000F00258A8190E00E946901A4
:100380008A810827002E0295007F0025012E102F5C
:1003900002950F700026069510270127000F000F09
:1003A000000F002580E098012827022E2295207F4B
:1003B0002025032E322F22952F70022626953227D4
:1003C0002327220F220F220F202579018E01CC2412
:1003D000DD2420C089EB92E0F801628140E050E02A
:1003E0000E943B0CF801828197012827022E22955A
:1003F000207F2025032E322F22952F70022626954E
:1004000032272327220F220F220F2025790108945B
:10041000C11CD11C0F5F1F4F8A8190E0C816D906FE
:10042000CCF2C7010E94690189EB92E06DE040E0E7
:1004300050E00E94960C89EB92E06AE040E050E0C8
:100440000E94960CDF91CF911F910F91FF90EF903A
:10045000DF90CF900895DC011B966C931B97462F7D
:1004600050E0CA0182539F4FFC0124911C962C93AB
:100470001C974E515F4FFA0184911D968C931D97E6
:1004800030E0220F331FF901E654FF4F859194911C
:100490001F969C938E931E97F901EC53FF4F859105
:1004A000949151969C938E935097F901E055FF4F8C
:1004B0008591949153969C938E9352978FEF1896B3
:1004C0008C9318971A961C921A9787E0FD01E80FF3
:1004D000F11D1082882311F08150F8CF0895DC01BE
:1004E0008FEF18968C9318971A961C921A9787E09C
:1004F000FD01E80FF11D1082882311F08150F8CF23
:100500000895FC0140E030E05CE80EC0208190E0FE
:10051000822F8327369580FD35279F5F983011F015
:100520002695F6CF4F5F3196461780F3832F0895B7
:10053000FF920F931F938C01DC015296ED91FC9179
:10054000539780811D969C911D97892B80831E96C1
:10055000ED91FC911F9790811D968C918095892338
:10056000808381E090E00E941909D8015296ED91B4
:10057000FC91539790811D968C918095892380835F
:1005800085E090E00E941909D8015096ED91FC9108
:1005900051972081FF2430E01D968C9190E0282314
:1005A0003923232B11F0FF24F39482E390E00E947F
:1005B00019098F2D1F910F91FF900895EF92FF92CF
:1005C0000F931F937C01062FDC015296ED91FC9155
:1005D000539780811D969C911D97892B80831E9631
:1005E000ED91FC911F9790811D968C9180958923A8
:1005F0008083017010E0F801E95DFE4F808190E09A
:100600000E941909D7011E96ED91FC911F978081D8
:100610001D969C91892B80830B5D1E4FF801808174
:1006200090E00E9419091F910F91FF90EF9008959B
:10063000CF92DF92EF92FF920F931F93CF93DF93AE
:100640008C01E42EFF24F394C0E0D0E0C62EDD241C
:1006500060E08F2D90E08C219D21892B09F061E0D5
:10066000C8010E94DE02FF0C2196C830D10581F737
:10067000EE2051F4F801838560E00E945E09F801E4
:10068000838560E00E94B109DF91CF911F910F91A6
:10069000FF90EF90DF90CF9008951F93CF93DF935B
:1006A000EC018B8560E00E945E091DE7115010F49B
:1006B00010E028C082E090E00E9419098B850E941A
:1006C000E609892B99F38B8560E00E94B1098B853F
:1006D00061E00E945E0984EF91E00E9419098B8518
:1006E00060E00E945E0981E490E00E9419098B8518
:1006F0000E94E60910E0892B09F411E08AEE91E0EE
:100700000E941909812FDF91CF911F910895AF9217
:10071000BF92CF92DF92EF92FF920F931F93CF93EE
:10072000DF93EC016B018A85882309F0A1C0CE011B
:100730000E944D03882309F49BC0CE0160EF40E086
:100740000E941803198600E010E021E0A22EB12CCF
:10075000E02ECE010E949802F82ECE010E9498024F
:10076000682F81E0F81689F4613079F48FEF88877B
:100770001A8687E0FE01E80FF11D1082882311F030
:100780008150F8CF81E08A8773C03E2D369536952B
:100790003695A80147705070C501042E02C0880F1D
:1007A000991F0A94E2F7282FFF2011F06F2D1EC029
:1007B000662319F58885992787FD909508171907ED
:1007C00009F462C08017910774F0FE01E30FF11D78
:1007D000808190E002C0959587954A95E2F7682F51
:1007E000617080FD03C00987662339F0FE01E30FC5
:1007F000F11D8081822B808308C0FE01E30FF11D73
:10080000209580812823208360E0CE010E94DE02B3
:100810000F5F1F4F0034110509F09ACF8985888733
:10082000882311F481E08A87CE0167E00E9481026B
:100830009F81891761F08FEF88871A8687E0FE0114
:10084000E80FF11D1082882399F08150F8CF20E045
:1008500030E0F601E20FF31FDE01A20FB31F8C910F
:1008600080832F5F3F4F2830310599F781E001C029
:1008700080E0DF91CF911F910F91FF90EF90DF907B
:10088000CF90BF90AF90089561E0B0CF08950895E4
:100890008EE391E00E94FF0081EB91E067E00E940F
:1008A0002B02089583E0E5ECF1E0DF011D928A95CB
:1008B000E9F78EE391E00E9404010895CF92DF9260
:1008C000EF92FF920F931F93DF93CF93CDB7DEB7D5
:1008D000C157D0400FB6F894DEBF0FBECDBF89EB35
:1008E00092E00E94A40A89838091C701882309F0BD
:1008F000C6C08091C501883008F124C089EB92E020
:100900000E94CF0A282F8981815089839091C50147
:10091000E92FF0E0E45FFE4F8081281739F4892F3A
:100920008F5F8093C501883051F40CC0273419F4CF
:100930001093C50104C01092C50101C011E0898166
:100940008823E1F68091C5018C3058F58981843087
:1009500008F495C089EB92E00E94CF0A8C0189EBE4
:1009600092E00E94CF0A382F20E0202B312B3093C9
:100970003F0120933E0189EB92E00E94CF0A182F9D
:1009800089EB92E00E94CF0A1093C60189818450BE
:1009900089838091C5018C5F8093C501113708F070
:1009A00065C08981882309F46AC08091C5018C30B3
:1009B00008F465C05EC08981481710F0F98001C055
:1009C000F42E92E0C92ED12CCC0EDD1E8F2D90E09E
:1009D0009C01890107C089EB92E00E94CF0AF601D1
:1009E00081936F0101501040FFEF0F3F1F0799F7F0
:1009F0008EE391E0BE016E5F7F4F4F2D50E00E946D
:100A000037018091C6018F198093C60189818F19A2
:100A100089838091C601882391F58091C70188233D
:100A200071F58981843058F18E010E5F1F4F780176
:100A300086E0C82ED12CCC0EDD1E07C089EB92E0DB
:100A40000E94CF0AF80181938F010C151D05B1F7A3
:100A5000C701029669E071E042E050E00E94810D1A
:100A6000009721F481E08093C70109C00E945204DD
:100A700006C04091C601442309F09DCFCACFCF588C
:100A8000DF4F0FB6F894DEBF0FBECDBFCF91DF9121
:100A90001F910F91FF90EF90DF90CF900895EF920C
:100AA000FF920F931F930E94BF08E0901A02F090EC
:100AB0001B0200911C0210911D0220911E02309118
:100AC0001F024091200250912102E21AF30A040B06
:100AD000150BE60EF71E081F191FE0921A02F0927E
:100AE0001B0200931C0210931D0260931E02709360
:100AF0001F02809320029093210280E0E8168CE58B
:100B0000F80680E0080780E01807C8F08091260208
:100B1000909127020196909327028093260280E00D
:100B200094EAAFEFBFEFE80EF91E0A1F1B1FE09219
:100B30001A02F0921B0200931C0210931D021F91D7
:100B40000F91FF90EF9008959F92AF92BF92CF9236
:100B5000DF92EF92FF920F931F93DF93CF93CDB766
:100B6000DEB7C457D0400FB6F894DEBF0FBECDBF7E
:100B7000B82EA92E6B01942E34E7E32EF12CEC0E47
:100B8000FD1EF70120838E010F5F1F4FC8010E94D9
:100B9000FF0084E190E09A838983EB2DFA2DDF0139
:100BA0000D900020E9F71197AE1BBF0BC80161E063
:100BB0004A2F2B2D3A2D0E945201C80162E0492D87
:100BC00096010E945201C80163E041E097010E9432
:100BD0005201C8010E948301CC58DF4F0FB6F89430
:100BE000DEBF0FBECDBFCF91DF911F910F91FF9060
:100BF000EF90DF90CF90BF90AF909F900895EF92CD
:100C0000FF920F931F93DF93CF93CDB7DEB7289753
:100C10000FB6F894DEBF0FBECDBF8E010F5F1F4F22
:100C200081EB91E0B8010E948703882381F581EB75
:100C300091E00E946F0202ED11E0EE24FF24F80122
:100C400080818823D1F08181815081838823A9F418
:100C50001082B701660F771FC70153E0880F991FF5
:100C60005A95E1F7680F791F66537E4F85E191E051
:100C700048E050E020E00E94A4050894E11CF11C2B
:100C8000065F1F4FF8E0EF16F104C9F67DC0C801FA
:100C900067E00E948102F8019781891709F074C00A
:100CA00099814A815B816C817D81AE81BF8118858C
:100CB000892F842B852B862B872B8A2B8B2B812BA3
:100CC00009F462C0EAECF1E020E030E0808588239E
:100CD00039F18081891721F58181841709F5828195
:100CE0008517F1F483818617D9F484818717C1F4BD
:100CF00085818A17A9F486818B1791F487818117E2
:100D000079F4F90143E0EE0FFF1F4A95E1F7220F56
:100D1000331FE20FF31FE653FE4F84E0818734C098
:100D20002F5F3F4F3A962830310581F6E2EDF1E032
:100D300020E030E08081882309F5F90183E0EE0F9F
:100D4000FF1F8A95E1F7220F331FE20FF31FE653CF
:100D5000FE4F81E0808784E08187908341835283C6
:100D600063837483A583B683178385E191E0BF0114
:100D700048E050E021E00E94A40506C02F5F3F4FED
:100D80003A9628303105B1F628960FB6F894DEBFB2
:100D90000FBECDBFCF91DF911F910F91FF90EF90CC
:100DA00008950F931F93DF93CF93CDB7DEB7CC5742
:100DB000D0400FB6F894DEBF0FBECDBF9C01DE0160
:100DC0001396EDE1F1E087E001900D928150E1F79B
:100DD000F901E853FE4F808189831A82822F805D5A
:100DE00089878E01065F1F4FC8010E94FF0082E1C4
:100DF00090E09B878A87C80161E047E09E012D5FF4
:100E00003F4F0E945201C80162E042E09E012F5F05
:100E10003F4F0E945201C8010E948301C458DF4F16
:100E20000FB6F894DEBF0FBECDBFCF91DF911F91FB
:100E30000F9108950F931F93DF93CF93CDB7DEB734
:100E4000C557D0400FB6F894DEBF0FBECDBF86E0C9
:100E500090E09A8389838E010D5F1F4FC8010E9425
:100E6000FF0081E090E09C838B83C80161E042E059
:100E70009E012F5F3F4F0E945201C8010E948301D3
:100E8000CB58DF4F0FB6F894DEBF0FBECDBFCF916A
:100E9000DF911F910F910895DF93CF9300D0CDB7CD
:100EA000DEB78091C701882309F449C080913E01D3
:100EB00090913F018138910521F083389105B9F572
:100EC00003C00E941A0733C08EE391E061E0AE01D7
:100ED0004F5F5F4F0E942701882349F18EE391E025
:100EE00062E0AE014E5F5F4F0E9427018823F9F058
:100EF00021C0F0E0E75DFE4F808160E00E94B10913
:100F0000E981F0E0E853FE4F10820DC0F0E0E75DAC
:100F1000FE4F808161E00E94B109E981F0E0E85371
:100F2000FE4F81E08083898190E00E94D1060E947B
:100F3000520405C08A81E9818823D9F2E7CF0F9056
:100F40000F90CF91DF9108950E944F050E945E049B
:100F50000E944C070E94FF0508958EE0EAE1F2E04E
:100F6000DF011D928A95E9F783E0E5ECF1E0DF010E
:100F70001D928A95E9F782E060E00E945E0982E0B6
:100F800061E00E94B10980E066E474E043E050E073
:100F90000E94FA0783E060E00E945E0983E061E05E
:100FA0000E94B10981E067E474E043E050E00E94F0
:100FB000FA0784E061E00E945E0985E061E00E943A
:100FC0005E0989E061E00E945E0989EB92E040E001
:100FD00052EC61E070E00E94470A8BE061E00E9401
:100FE0005E090E94B20086E890E00E94DD000E9447
:100FF0001A070895823000F5E82FF0E0EE0FFF1F8A
:10100000E85DFD4F71836083882319F08130A1F47E
:1010100008C0809169008C7F842B80936900E89AD6
:10102000089580916900440F551F440F551F837F19
:10103000842B80936900E99A08951F920F920FB64E
:101040000F9211242F933F934F935F936F937F934E
:101050008F939F93AF93BF93EF93FF938091280259
:1010600090912902892B29F0E0912802F091290220
:101070000995FF91EF91BF91AF919F918F917F91D2
:101080006F915F914F913F912F910F900FBE0F90F5
:101090001F9018951F920F920FB60F9211242F9345
:1010A0003F934F935F936F937F938F939F93AF93F0
:1010B000BF93EF93FF9380912A0290912B02892B8B
:1010C00029F0E0912A02F0912B020995FF91EF910E
:1010D000BF91AF919F918F917F916F915F914F9150
:1010E0003F912F910F900FBE0F901F9018951F9258
:1010F0000F920FB60F9211242F933F938F939F93CC
:10110000AF93BF938091300290913102A09132024F
:10111000B0913302309134020196A11DB11D232FED
:101120002D5F2D3720F02D570196A11DB11D209365
:1011300034028093300290933102A0933202B09334
:10114000330280912C0290912D02A0912E02B09139
:101150002F020196A11DB11D80932C0290932D02A8
:10116000A0932E02B0932F02BF91AF919F918F91C8
:101170003F912F910F900FBE0F901F9018958FB732
:10118000F894209130023091310240913202509116
:1011900033028FBFB901CA0108959FB7F894209117
:1011A0002C0230912D0240912E0250912F0286B5D3
:1011B000A89B06C08F3F21F02F5F3F4F4F4F5F4FDF
:1011C0009FBF542F432F322F2227280F311D411D3F
:1011D000511D82E0220F331F441F551F8A95D1F7FE
:1011E000B901CA010895EF92FF920F931F93CF9315
:1011F000DF937B018C010E94CD08EB010EC00E94A1
:10120000CD086C1B7D0B685E7340C8F30894E10841
:10121000F10801091109C851DC4FE114F10401057D
:10122000110569F7DF91CF911F910F91FF90EF901A
:101230000895019739F0880F991F880F991F029719
:101240000197F1F70895789484B5826084BD84B5E0
:10125000816084BD85B5826085BD85B5816085BDB1
:10126000EEE6F0E0808181608083E1E8F0E01082CA
:10127000808182608083808181608083E0E8F0E00B
:10128000808181608083E1EBF0E0808184608083F5
:10129000E0EBF0E0808181608083EAE7F0E080812C
:1012A000846080838081826080838081816080838C
:1012B0008081806880831092C1000895482F50E09B
:1012C000CA018E519F4FFC01249142535F4FFA0196
:1012D00084918823C1F0E82FF0E0EE0FFF1FE05566
:1012E000FF4FA591B491662341F49FB7F8948C9178
:1012F000209582238C939FBF08959FB7F8948C917B
:10130000822B8C939FBF0895833071F0843028F432
:101310008130A1F0823021F514C08630B1F08730E1
:10132000D1F08430E9F404C0809180008F7703C04D
:10133000809180008F7D80938000089584B58F77A1
:1013400002C084B58F7D84BD08958091B0008F77F1
:101350008093B00008958091B0008F7D8093B0009D
:101360000895FF920F931F93F62E482F50E0CA0165
:101370008A509F4FFC012491CA018E519F4FFC015E
:10138000149142535F4FFA0104910023D9F02223B4
:1013900019F0822F0E948409E02FF0E0EE0FFF1F6A
:1013A000E654FF4FA591B491FF2031F49FB7F89414
:1013B0008C911095812304C09FB7F8948C91812B58
:1013C0008C939FBF1F910F91FF9008950F931F93D0
:1013D000482F50E0CA018A509F4FFC012491CA0156
:1013E0008E519F4FFC01049142535F4FFA011491BB
:1013F000112319F420E030E015C0222319F0822FC8
:101400000E948409812F90E0880F991F8C539F4F71
:10141000FC01A591B4918C9120E030E0802311F083
:1014200021E030E0C9011F910F9108951F920F92A2
:101430000FB60F9211242F933F934F938F939F9347
:10144000EF93FF934091C600E091B502F091B60290
:1014500031969F012F77307031978091B70290912C
:10146000B8022817390739F0EB5CFD4F4083309301
:10147000B6022093B502FF91EF919F918F914F910A
:101480003F912F910F900FBE0F901F901895CF9303
:10149000DF93EC019A01AB01E885F985203081EEFC
:1014A000380780E0480780E0580709F449C081E028
:1014B00090E00A8802C0880F991F0A94E2F780839F
:1014C00060E079E08DE390E00E94600D21503040B3
:1014D00040405040CA01B90122E030E040E050E015
:1014E0000E94600DEC81FD813083EE81FF812083BD
:1014F000EA85FB85208141E050E0CA010E8402C0EC
:10150000880F991F0A94E2F7282B2083EA85FB8530
:101510002081CA010F8402C0880F991F0A94E2F744
:10152000282B2083EA85FB858081088802C0440F30
:10153000551F0A94E2F7842B8083DF91CF910895A1
:10154000108220E130E0CECFDC011296ED91FC91CB
:101550001397E058FF4F2191319180819181281B91
:10156000390B2F773070C9010895DC011296ED9187
:10157000FC911397EE57FF4F208131819291829118
:10158000E058F0408217930719F42FEF3FEF05C0A2
:10159000E20FF31F8081282F30E0C9010895DC019C
:1015A0001296ED91FC911397DF01AE57BF4F2D912D
:1015B0003C911197E058FF4F80819181E058F040B5
:1015C0008217930719F42FEF3FEF0BC0E20FF31FC1
:1015D00080812F5F3F4F2F7730702D933C93282FC2
:1015E00030E0C9010895DC011296ED91FC9113974A
:1015F000EE57FF4F80819181929382930895FC0171
:10160000A085B18521898C9190E0022E02C095952C
:1016100087950A94E2F780FFF6CF0484F585E02DE4
:10162000608308958FE291E09093BA028093B902AB
:1016300085E392E09093BC028093BB0285EC90E03E
:101640009093BE028093BD0284EC90E09093C00220
:101650008093BF0280EC90E09093C2028093C1021D
:1016600081EC90E09093C4028093C30286EC90E0FA
:101670009093C6028093C50284E08093C70283E002
:101680008093C80287E08093C90285E08093CA02F4
:1016900081E08093CB0208950E9423090E94AD0748
:1016A0000E94A407FDCF0F931F93CF93DF938C016C
:1016B000EB0109C02196D801ED91FC910190F081D8
:1016C000E02DC801099568816623A1F7DF91CF91CC
:1016D0001F910F910895EF92FF920F931F93CF9355
:1016E000DF938C017B01EA010CC0D7016D917D0174
:1016F000D801ED91FC910190F081E02DC801099590
:101700002197209791F7DF91CF911F910F91FF9033
:10171000EF900895DC01ED91FC910280F381E02DC2
:10172000099508952F923F924F925F926F927F9208
:101730008F929F92AF92BF92CF92DF92EF92FF92E1
:101740000F931F93DF93CF93CDB7DEB7A0970FB65C
:10175000F894DEBF0FBECDBF1C016A017B014115AD
:1017600051056105710549F440E350E060E070E027
:1017700020E030E00E944D0C56C08824992454018A
:10178000422E55246624772401E010E00C0F1D1F23
:10179000080D191DC701B601A30192010E943E0D5B
:1017A000F80160830894811C911CA11CB11CC70125
:1017B000B601A30192010E943E0DC901DA016C013C
:1017C0007D01C114D104E104F104F1F681E0E82EB9
:1017D000F12CEC0EFD1EE80CF91C3E010894611C76
:1017E000711CD501C4010197A109B1096C01C81888
:1017F000D90816C0F601EE0DFF1D40814A3010F4E5
:10180000405D01C0495C552747FD5095652F752FF8
:10181000C10120E030E00E944D0C0894E108F1087D
:101820006E147F0439F7A0960FB6F894DEBF0FBE92
:10183000CDBFCF91DF911F910F91FF90EF90DF907F
:10184000CF90BF90AF909F908F907F906F905F9060
:101850004F903F902F900895DC012115310541F400
:10186000ED91FC910190F081E02D642F0995089590
:101870000E94920B0895EF92FF920F931F939A018B
:10188000E62EFF2400E010E0B801A7010E942C0C16
:101890001F910F91FF90EF900895EF92FF920F9399
:1018A0001F93CF93DF93EC017A018B012115310552
:1018B00041F4E881F9810190F081E02D642F0995D0
:1018C0001BC02A303105B1F477FF10C04DE250E063
:1018D00060E070E020E030E00E944D0C1095009533
:1018E000F094E094E11CF11C011D111DCE01B80122
:1018F000A7012AE00E94920BDF91CF911F910F91D7
:10190000FF90EF900895EF92FF920F931F937B014A
:101910009A010027F7FC0095102FB801A7010E943B
:101920004D0C1F910F91FF90EF900895EF92FF9251
:101930000F931F93E62E9A01FF24E7FCF0940F2DDE
:101940001F2DB801A7010E944D0C1F910F91FF9010
:10195000EF900895813041F0813018F08230D1F459
:1019600009C010926E00089580916F008D7F809362
:101970006F000895809170008D7F8093700081E0EA
:101980008093B0008091B100887F84608093B10023
:101990001092B30008951F93182F8091240181178E
:1019A00011F09FEF06C0EAE0F1E094918FEF809391
:1019B0002401892F0E94AA0C812F60E00E94B109A6
:1019C0001F9108951F920F920FB60F9211242F931B
:1019D0003F934F935F936F937F938F939F93AF93B7
:1019E000BF93EF93FF938091CC029091CD02A09191
:1019F000CE02B091CF020097A105B10551F1E0915F
:101A0000D002F091D10280819091D2028927808307
:101A10008091CC029091CD02A091CE02B091CF02E4
:101A2000181619061A061B06C4F48091CC02909170
:101A3000CD02A091CE02B091CF020197A109B109C8
:101A40008093CC029093CD02A093CE02B093CF02AC
:101A500004C0809124010E94CB0CFF91EF91BF91B3
:101A6000AF919F918F917F916F915F914F913F9136
:101A70002F910F900FBE0F901F901895A1E21A2E74
:101A8000AA1BBB1BFD010DC0AA1FBB1FEE1FFF1F22
:101A9000A217B307E407F50720F0A21BB30BE40B72
:101AA000F50B661F771F881F991F1A9469F76095B9
:101AB0007095809590959B01AC01BD01CF01089573
:101AC00097FB092E05260ED057FD04D0D7DF0AD08C
:101AD000001C38F450954095309521953F4F4F4F5D
:101AE0005F4F0895F6F790958095709561957F4FBB
:101AF0008F4F9F4F0895EE0FFF1F0590F491E02D3B
:101B00000994FB01DC014150504030F08D9101906F
:101B1000801919F40020B9F7881B990B0895F894DF
:021B2000FFCFF5
:101B2200474253502076313A000D0A004742535043
:101B32002076313A006F6E65776972650072656C66
:101B420061792D00FF05373705040500000000FF0D
:0E1B52000A530B6B0BA40ACF0AB50AF30A0064
:00000001FF
